{
    "_format": "hh-sol-artifact-1",
    "contractName": "StakingToken",
    "sourceName": "contracts/StakingToken.sol",
    "abi": [
        {
            "inputs": [
                {
                    "internalType": "uint256",
                    "name": "initialSupply",
                    "type": "uint256"
                }
            ],
            "stateMutability": "nonpayable",
            "type": "constructor"
        },
        {
            "anonymous": false,
            "inputs": [
                {
                    "indexed": true,
                    "internalType": "address",
                    "name": "owner",
                    "type": "address"
                },
                {
                    "indexed": true,
                    "internalType": "address",
                    "name": "spender",
                    "type": "address"
                },
                {
                    "indexed": false,
                    "internalType": "uint256",
                    "name": "value",
                    "type": "uint256"
                }
            ],
            "name": "Approval",
            "type": "event"
        },
        {
            "anonymous": false,
            "inputs": [
                {
                    "indexed": true,
                    "internalType": "address",
                    "name": "previousOwner",
                    "type": "address"
                },
                {
                    "indexed": true,
                    "internalType": "address",
                    "name": "newOwner",
                    "type": "address"
                }
            ],
            "name": "OwnershipTransferred",
            "type": "event"
        },
        {
            "anonymous": false,
            "inputs": [
                {
                    "indexed": true,
                    "internalType": "address",
                    "name": "from",
                    "type": "address"
                },
                {
                    "indexed": true,
                    "internalType": "address",
                    "name": "to",
                    "type": "address"
                },
                {
                    "indexed": false,
                    "internalType": "uint256",
                    "name": "value",
                    "type": "uint256"
                }
            ],
            "name": "Transfer",
            "type": "event"
        },
        {
            "inputs": [
                {
                    "internalType": "address",
                    "name": "_stakeholder",
                    "type": "address"
                }
            ],
            "name": "addStakeholder",
            "outputs": [],
            "stateMutability": "nonpayable",
            "type": "function"
        },
        {
            "inputs": [
                {
                    "internalType": "address",
                    "name": "owner",
                    "type": "address"
                },
                {
                    "internalType": "address",
                    "name": "spender",
                    "type": "address"
                }
            ],
            "name": "allowance",
            "outputs": [
                {
                    "internalType": "uint256",
                    "name": "",
                    "type": "uint256"
                }
            ],
            "stateMutability": "view",
            "type": "function"
        },
        {
            "inputs": [
                {
                    "internalType": "address",
                    "name": "spender",
                    "type": "address"
                },
                {
                    "internalType": "uint256",
                    "name": "amount",
                    "type": "uint256"
                }
            ],
            "name": "approve",
            "outputs": [
                {
                    "internalType": "bool",
                    "name": "",
                    "type": "bool"
                }
            ],
            "stateMutability": "nonpayable",
            "type": "function"
        },
        {
            "inputs": [
                {
                    "internalType": "address",
                    "name": "account",
                    "type": "address"
                }
            ],
            "name": "balanceOf",
            "outputs": [
                {
                    "internalType": "uint256",
                    "name": "",
                    "type": "uint256"
                }
            ],
            "stateMutability": "view",
            "type": "function"
        },
        {
            "inputs": [
                {
                    "internalType": "uint256",
                    "name": "_amount",
                    "type": "uint256"
                }
            ],
            "name": "buyToken",
            "outputs": [],
            "stateMutability": "payable",
            "type": "function"
        },
        {
            "inputs": [
                {
                    "internalType": "address",
                    "name": "_stakeholder",
                    "type": "address"
                }
            ],
            "name": "calculateReward",
            "outputs": [
                {
                    "internalType": "uint256",
                    "name": "",
                    "type": "uint256"
                }
            ],
            "stateMutability": "view",
            "type": "function"
        },
        {
            "inputs": [
                {
                    "internalType": "uint256",
                    "name": "_stake",
                    "type": "uint256"
                }
            ],
            "name": "createStake",
            "outputs": [],
            "stateMutability": "nonpayable",
            "type": "function"
        },
        {
            "inputs": [],
            "name": "decimals",
            "outputs": [
                {
                    "internalType": "uint8",
                    "name": "",
                    "type": "uint8"
                }
            ],
            "stateMutability": "view",
            "type": "function"
        },
        {
            "inputs": [
                {
                    "internalType": "address",
                    "name": "spender",
                    "type": "address"
                },
                {
                    "internalType": "uint256",
                    "name": "subtractedValue",
                    "type": "uint256"
                }
            ],
            "name": "decreaseAllowance",
            "outputs": [
                {
                    "internalType": "bool",
                    "name": "",
                    "type": "bool"
                }
            ],
            "stateMutability": "nonpayable",
            "type": "function"
        },
        {
            "inputs": [],
            "name": "distributeRewards",
            "outputs": [],
            "stateMutability": "nonpayable",
            "type": "function"
        },
        {
            "inputs": [
                {
                    "internalType": "address",
                    "name": "spender",
                    "type": "address"
                },
                {
                    "internalType": "uint256",
                    "name": "addedValue",
                    "type": "uint256"
                }
            ],
            "name": "increaseAllowance",
            "outputs": [
                {
                    "internalType": "bool",
                    "name": "",
                    "type": "bool"
                }
            ],
            "stateMutability": "nonpayable",
            "type": "function"
        },
        {
            "inputs": [
                {
                    "internalType": "address",
                    "name": "_address",
                    "type": "address"
                }
            ],
            "name": "isStakeholder",
            "outputs": [
                {
                    "internalType": "bool",
                    "name": "",
                    "type": "bool"
                },
                {
                    "internalType": "uint256",
                    "name": "",
                    "type": "uint256"
                }
            ],
            "stateMutability": "view",
            "type": "function"
        },
        {
            "inputs": [
                {
                    "internalType": "uint256",
                    "name": "_price",
                    "type": "uint256"
                }
            ],
            "name": "modifyTokenBuyPrice",
            "outputs": [],
            "stateMutability": "nonpayable",
            "type": "function"
        },
        {
            "inputs": [],
            "name": "name",
            "outputs": [
                {
                    "internalType": "string",
                    "name": "",
                    "type": "string"
                }
            ],
            "stateMutability": "view",
            "type": "function"
        },
        {
            "inputs": [],
            "name": "owner",
            "outputs": [
                {
                    "internalType": "address",
                    "name": "",
                    "type": "address"
                }
            ],
            "stateMutability": "view",
            "type": "function"
        },
        {
            "inputs": [
                {
                    "internalType": "uint256",
                    "name": "_stake",
                    "type": "uint256"
                }
            ],
            "name": "removeStake",
            "outputs": [],
            "stateMutability": "nonpayable",
            "type": "function"
        },
        {
            "inputs": [
                {
                    "internalType": "address",
                    "name": "_stakeholder",
                    "type": "address"
                }
            ],
            "name": "removeStakeholder",
            "outputs": [],
            "stateMutability": "nonpayable",
            "type": "function"
        },
        {
            "inputs": [],
            "name": "renounceOwnership",
            "outputs": [],
            "stateMutability": "nonpayable",
            "type": "function"
        },
        {
            "inputs": [
                {
                    "internalType": "address",
                    "name": "_stakeholder",
                    "type": "address"
                }
            ],
            "name": "rewardOf",
            "outputs": [
                {
                    "internalType": "uint256",
                    "name": "",
                    "type": "uint256"
                }
            ],
            "stateMutability": "view",
            "type": "function"
        },
        {
            "inputs": [
                {
                    "internalType": "address",
                    "name": "_stakeholder",
                    "type": "address"
                }
            ],
            "name": "stakeOf",
            "outputs": [
                {
                    "internalType": "uint256",
                    "name": "",
                    "type": "uint256"
                }
            ],
            "stateMutability": "view",
            "type": "function"
        },
        {
            "inputs": [],
            "name": "symbol",
            "outputs": [
                {
                    "internalType": "string",
                    "name": "",
                    "type": "string"
                }
            ],
            "stateMutability": "view",
            "type": "function"
        },
        {
            "inputs": [],
            "name": "totalRewards",
            "outputs": [
                {
                    "internalType": "uint256",
                    "name": "",
                    "type": "uint256"
                }
            ],
            "stateMutability": "view",
            "type": "function"
        },
        {
            "inputs": [],
            "name": "totalStakes",
            "outputs": [
                {
                    "internalType": "uint256",
                    "name": "",
                    "type": "uint256"
                }
            ],
            "stateMutability": "view",
            "type": "function"
        },
        {
            "inputs": [],
            "name": "totalSupply",
            "outputs": [
                {
                    "internalType": "uint256",
                    "name": "",
                    "type": "uint256"
                }
            ],
            "stateMutability": "view",
            "type": "function"
        },
        {
            "inputs": [
                {
                    "internalType": "address",
                    "name": "to",
                    "type": "address"
                },
                {
                    "internalType": "uint256",
                    "name": "amount",
                    "type": "uint256"
                }
            ],
            "name": "transfer",
            "outputs": [
                {
                    "internalType": "bool",
                    "name": "",
                    "type": "bool"
                }
            ],
            "stateMutability": "nonpayable",
            "type": "function"
        },
        {
            "inputs": [
                {
                    "internalType": "address",
                    "name": "from",
                    "type": "address"
                },
                {
                    "internalType": "address",
                    "name": "to",
                    "type": "address"
                },
                {
                    "internalType": "uint256",
                    "name": "amount",
                    "type": "uint256"
                }
            ],
            "name": "transferFrom",
            "outputs": [
                {
                    "internalType": "bool",
                    "name": "",
                    "type": "bool"
                }
            ],
            "stateMutability": "nonpayable",
            "type": "function"
        },
        {
            "inputs": [
                {
                    "internalType": "address",
                    "name": "newOwner",
                    "type": "address"
                }
            ],
            "name": "transferOwnership",
            "outputs": [],
            "stateMutability": "nonpayable",
            "type": "function"
        },
        {
            "inputs": [],
            "name": "withdrawReward",
            "outputs": [],
            "stateMutability": "nonpayable",
            "type": "function"
        }
    ],
    "bytecode": "0x60806040523480156200001157600080fd5b50604051620033713803806200337183398181016040528101906200003791906200042f565b6040518060400160405280600681526020017f67696e67657200000000000000000000000000000000000000000000000000008152506040518060400160405280600381526020017f474e4700000000000000000000000000000000000000000000000000000000008152508160039080519060200190620000bb92919062000368565b508060049080519060200190620000d492919062000368565b505050620000f7620000eb6200011760201b60201c565b6200011f60201b60201c565b620001093382620001e560201b60201c565b806006819055505062000621565b600033905090565b6000600560009054906101000a900473ffffffffffffffffffffffffffffffffffffffff16905081600560006101000a81548173ffffffffffffffffffffffffffffffffffffffff021916908373ffffffffffffffffffffffffffffffffffffffff1602179055508173ffffffffffffffffffffffffffffffffffffffff168173ffffffffffffffffffffffffffffffffffffffff167f8be0079c531659141344cd1fd0a4f28419497f9722a3daafe3b4186f6b6457e060405160405180910390a35050565b600073ffffffffffffffffffffffffffffffffffffffff168273ffffffffffffffffffffffffffffffffffffffff16141562000258576040517f08c379a00000000000000000000000000000000000000000000000000000000081526004016200024f9062000493565b60405180910390fd5b6200026c600083836200035e60201b60201c565b8060026000828254620002809190620004e3565b92505081905550806000808473ffffffffffffffffffffffffffffffffffffffff1673ffffffffffffffffffffffffffffffffffffffff1681526020019081526020016000206000828254620002d79190620004e3565b925050819055508173ffffffffffffffffffffffffffffffffffffffff16600073ffffffffffffffffffffffffffffffffffffffff167fddf252ad1be2c89b69c2b068fc378daa952ba7f163c4a11628f55a4df523b3ef836040516200033e9190620004b5565b60405180910390a36200035a600083836200036360201b60201c565b5050565b505050565b505050565b82805462000376906200054a565b90600052602060002090601f0160209004810192826200039a5760008555620003e6565b82601f10620003b557805160ff1916838001178555620003e6565b82800160010185558215620003e6579182015b82811115620003e5578251825591602001919060010190620003c8565b5b509050620003f59190620003f9565b5090565b5b8082111562000414576000816000905550600101620003fa565b5090565b600081519050620004298162000607565b92915050565b6000602082840312156200044257600080fd5b6000620004528482850162000418565b91505092915050565b60006200046a601f83620004d2565b91506200047782620005de565b602082019050919050565b6200048d8162000540565b82525050565b60006020820190508181036000830152620004ae816200045b565b9050919050565b6000602082019050620004cc600083018462000482565b92915050565b600082825260208201905092915050565b6000620004f08262000540565b9150620004fd8362000540565b9250827fffffffffffffffffffffffffffffffffffffffffffffffffffffffffffffffff0382111562000535576200053462000580565b5b828201905092915050565b6000819050919050565b600060028204905060018216806200056357607f821691505b602082108114156200057a5762000579620005af565b5b50919050565b7f4e487b7100000000000000000000000000000000000000000000000000000000600052601160045260246000fd5b7f4e487b7100000000000000000000000000000000000000000000000000000000600052602260045260246000fd5b7f45524332303a206d696e7420746f20746865207a65726f206164647265737300600082015250565b620006128162000540565b81146200061e57600080fd5b50565b612d4080620006316000396000f3fe6080604052600436106101b75760003560e01c8063834dc984116100ec578063bf9befb11161008a578063dd62ed3e11610064578063dd62ed3e14610613578063e5c42fd114610650578063ef037b9014610679578063f2fde38b146106b7576101b7565b8063bf9befb114610594578063c885bc58146105bf578063d82e3962146105d6576101b7565b806395d89b41116100c657806395d89b41146104c6578063a457c2d7146104f1578063a9059cbb1461052e578063bcb0c2d71461056b576101b7565b8063834dc984146104495780638da5cb5b14610472578063939624ab1461049d576101b7565b80632d296bf111610159578063426233601161013357806342623360146103a15780636f4a2cd0146103de57806370a08231146103f5578063715018a614610432576101b7565b80632d296bf11461031d578063313ce567146103395780633950935114610364576101b7565b806318160ddd1161019557806318160ddd1461024f5780631bf6ddae1461027a5780631d62ebd9146102a357806323b872dd146102e0576101b7565b806306fdde03146101bc578063095ea7b3146101e75780630e15561a14610224575b600080fd5b3480156101c857600080fd5b506101d16106e0565b6040516101de91906124f0565b60405180910390f35b3480156101f357600080fd5b5061020e600480360381019061020991906121f0565b610772565b60405161021b91906124ac565b60405180910390f35b34801561023057600080fd5b50610239610795565b60405161024691906126b2565b60405180910390f35b34801561025b57600080fd5b50610264610880565b60405161027191906126b2565b60405180910390f35b34801561028657600080fd5b506102a1600480360381019061029c919061222c565b61088a565b005b3480156102af57600080fd5b506102ca60048036038101906102c5919061213c565b6109c2565b6040516102d791906126b2565b60405180910390f35b3480156102ec57600080fd5b50610307600480360381019061030291906121a1565b610a0b565b60405161031491906124ac565b60405180910390f35b6103376004803603810190610332919061222c565b610a3a565b005b34801561034557600080fd5b5061034e610a68565b60405161035b91906126cd565b60405180910390f35b34801561037057600080fd5b5061038b600480360381019061038691906121f0565b610a71565b60405161039891906124ac565b60405180910390f35b3480156103ad57600080fd5b506103c860048036038101906103c3919061213c565b610b1b565b6040516103d591906126b2565b60405180910390f35b3480156103ea57600080fd5b506103f3610b64565b005b34801561040157600080fd5b5061041c6004803603810190610417919061213c565b610d14565b60405161042991906126b2565b60405180910390f35b34801561043e57600080fd5b50610447610d5c565b005b34801561045557600080fd5b50610470600480360381019061046b919061222c565b610de4565b005b34801561047e57600080fd5b50610487610e6a565b6040516104949190612491565b60405180910390f35b3480156104a957600080fd5b506104c460048036038101906104bf919061222c565b610e94565b005b3480156104d257600080fd5b506104db610f88565b6040516104e891906124f0565b60405180910390f35b3480156104fd57600080fd5b50610518600480360381019061051391906121f0565b61101a565b60405161052591906124ac565b60405180910390f35b34801561053a57600080fd5b50610555600480360381019061055091906121f0565b611104565b60405161056291906124ac565b60405180910390f35b34801561057757600080fd5b50610592600480360381019061058d919061213c565b611127565b005b3480156105a057600080fd5b506105a96112a8565b6040516105b691906126b2565b60405180910390f35b3480156105cb57600080fd5b506105d4611393565b005b3480156105e257600080fd5b506105fd60048036038101906105f8919061213c565b6114c0565b60405161060a91906126b2565b60405180910390f35b34801561061f57600080fd5b5061063a60048036038101906106359190612165565b611515565b60405161064791906126b2565b60405180910390f35b34801561065c57600080fd5b506106776004803603810190610672919061213c565b61159c565b005b34801561068557600080fd5b506106a0600480360381019061069b919061213c565b611617565b6040516106ae9291906124c7565b60405180910390f35b3480156106c357600080fd5b506106de60048036038101906106d9919061213c565b6116f1565b005b6060600380546106ef906128a1565b80601f016020809104026020016040519081016040528092919081815260200182805461071b906128a1565b80156107685780601f1061073d57610100808354040283529160200191610768565b820191906000526020600020905b81548152906001019060200180831161074b57829003601f168201915b5050505050905090565b60008061077d6117e9565b905061078a8185856117f1565b600191505092915050565b6000806000905060005b60098054905081101561087857610862600d6000600984815481106107ed577f4e487b7100000000000000000000000000000000000000000000000000000000600052603260045260246000fd5b9060005260206000200160009054906101000a900473ffffffffffffffffffffffffffffffffffffffff1673ffffffffffffffffffffffffffffffffffffffff1673ffffffffffffffffffffffffffffffffffffffff16815260200190815260200160002054836119bc90919063ffffffff16565b91506001816108719190612704565b905061079f565b508091505090565b6000600254905090565b61089433826119d2565b6000600b60003373ffffffffffffffffffffffffffffffffffffffff1673ffffffffffffffffffffffffffffffffffffffff1681526020019081526020016000205414156108e6576108e53361159c565b5b61093881600b60003373ffffffffffffffffffffffffffffffffffffffff1673ffffffffffffffffffffffffffffffffffffffff168152602001908152602001600020546119bc90919063ffffffff16565b600b60003373ffffffffffffffffffffffffffffffffffffffff1673ffffffffffffffffffffffffffffffffffffffff1681526020019081526020016000208190555042600c60003373ffffffffffffffffffffffffffffffffffffffff1673ffffffffffffffffffffffffffffffffffffffff1681526020019081526020016000208190555050565b6000600d60008373ffffffffffffffffffffffffffffffffffffffff1673ffffffffffffffffffffffffffffffffffffffff168152602001908152602001600020549050919050565b600080610a166117e9565b9050610a23858285611ba9565b610a2e858585611c35565b60019150509392505050565b610a4f81600a54611eb690919063ffffffff16565b341015610a5b57600080fd5b610a653382611ecc565b50565b60006012905090565b600080610a7c6117e9565b9050610b10818585600160008673ffffffffffffffffffffffffffffffffffffffff1673ffffffffffffffffffffffffffffffffffffffff16815260200190815260200160002060008973ffffffffffffffffffffffffffffffffffffffff1673ffffffffffffffffffffffffffffffffffffffff16815260200190815260200160002054610b0b9190612704565b6117f1565b600191505092915050565b6000600b60008373ffffffffffffffffffffffffffffffffffffffff1673ffffffffffffffffffffffffffffffffffffffff168152602001908152602001600020549050919050565b610b6c6117e9565b73ffffffffffffffffffffffffffffffffffffffff16610b8a610e6a565b73ffffffffffffffffffffffffffffffffffffffff1614610be0576040517f08c379a0000000000000000000000000000000000000000000000000000000008152600401610bd7906125f2565b60405180910390fd5b60005b600980549050811015610d1157600060098281548110610c2c577f4e487b7100000000000000000000000000000000000000000000000000000000600052603260045260246000fd5b9060005260206000200160009054906101000a900473ffffffffffffffffffffffffffffffffffffffff1690506000610c64826114c0565b9050610cb881600d60008573ffffffffffffffffffffffffffffffffffffffff1673ffffffffffffffffffffffffffffffffffffffff168152602001908152602001600020546119bc90919063ffffffff16565b600d60008473ffffffffffffffffffffffffffffffffffffffff1673ffffffffffffffffffffffffffffffffffffffff168152602001908152602001600020819055505050600181610d0a9190612704565b9050610be3565b50565b60008060008373ffffffffffffffffffffffffffffffffffffffff1673ffffffffffffffffffffffffffffffffffffffff168152602001908152602001600020549050919050565b610d646117e9565b73ffffffffffffffffffffffffffffffffffffffff16610d82610e6a565b73ffffffffffffffffffffffffffffffffffffffff1614610dd8576040517f08c379a0000000000000000000000000000000000000000000000000000000008152600401610dcf906125f2565b60405180910390fd5b610de2600061202c565b565b610dec6117e9565b73ffffffffffffffffffffffffffffffffffffffff16610e0a610e6a565b73ffffffffffffffffffffffffffffffffffffffff1614610e60576040517f08c379a0000000000000000000000000000000000000000000000000000000008152600401610e57906125f2565b60405180910390fd5b80600a8190555050565b6000600560009054906101000a900473ffffffffffffffffffffffffffffffffffffffff16905090565b610ee681600b60003373ffffffffffffffffffffffffffffffffffffffff1673ffffffffffffffffffffffffffffffffffffffff168152602001908152602001600020546120f290919063ffffffff16565b600b60003373ffffffffffffffffffffffffffffffffffffffff1673ffffffffffffffffffffffffffffffffffffffff168152602001908152602001600020819055506000600b60003373ffffffffffffffffffffffffffffffffffffffff1673ffffffffffffffffffffffffffffffffffffffff168152602001908152602001600020541415610f7b57610f7a33611127565b5b610f853382611ecc565b50565b606060048054610f97906128a1565b80601f0160208091040260200160405190810160405280929190818152602001828054610fc3906128a1565b80156110105780601f10610fe557610100808354040283529160200191611010565b820191906000526020600020905b815481529060010190602001808311610ff357829003601f168201915b5050505050905090565b6000806110256117e9565b90506000600160008373ffffffffffffffffffffffffffffffffffffffff1673ffffffffffffffffffffffffffffffffffffffff16815260200190815260200160002060008673ffffffffffffffffffffffffffffffffffffffff1673ffffffffffffffffffffffffffffffffffffffff168152602001908152602001600020549050838110156110eb576040517f08c379a00000000000000000000000000000000000000000000000000000000081526004016110e290612672565b60405180910390fd5b6110f882868684036117f1565b60019250505092915050565b60008061110f6117e9565b905061111c818585611c35565b600191505092915050565b60008061113383611617565b9150915081156112a3576009600160098054905061115191906127e5565b81548110611188577f4e487b7100000000000000000000000000000000000000000000000000000000600052603260045260246000fd5b9060005260206000200160009054906101000a900473ffffffffffffffffffffffffffffffffffffffff16600982815481106111ed577f4e487b7100000000000000000000000000000000000000000000000000000000600052603260045260246000fd5b9060005260206000200160006101000a81548173ffffffffffffffffffffffffffffffffffffffff021916908373ffffffffffffffffffffffffffffffffffffffff160217905550600980548061126d577f4e487b7100000000000000000000000000000000000000000000000000000000600052603160045260246000fd5b6001900381819060005260206000200160006101000a81549073ffffffffffffffffffffffffffffffffffffffff021916905590555b505050565b6000806000905060005b60098054905081101561138b57611375600b600060098481548110611300577f4e487b7100000000000000000000000000000000000000000000000000000000600052603260045260246000fd5b9060005260206000200160009054906101000a900473ffffffffffffffffffffffffffffffffffffffff1673ffffffffffffffffffffffffffffffffffffffff1673ffffffffffffffffffffffffffffffffffffffff16815260200190815260200160002054836119bc90919063ffffffff16565b91506001816113849190612704565b90506112b2565b508091505090565b426113e962093a80600c60003373ffffffffffffffffffffffffffffffffffffffff1673ffffffffffffffffffffffffffffffffffffffff168152602001908152602001600020546119bc90919063ffffffff16565b101561142a576040517f08c379a000000000000000000000000000000000000000000000000000000000815260040161142190612592565b60405180910390fd5b6000600d60003373ffffffffffffffffffffffffffffffffffffffff1673ffffffffffffffffffffffffffffffffffffffff1681526020019081526020016000205490506000600d60003373ffffffffffffffffffffffffffffffffffffffff1673ffffffffffffffffffffffffffffffffffffffff168152602001908152602001600020819055506114bd3382611ecc565b50565b60006064600b60008473ffffffffffffffffffffffffffffffffffffffff1673ffffffffffffffffffffffffffffffffffffffff1681526020019081526020016000205461150e919061275a565b9050919050565b6000600160008473ffffffffffffffffffffffffffffffffffffffff1673ffffffffffffffffffffffffffffffffffffffff16815260200190815260200160002060008373ffffffffffffffffffffffffffffffffffffffff1673ffffffffffffffffffffffffffffffffffffffff16815260200190815260200160002054905092915050565b60006115a782611617565b50905080611613576009829080600181540180825580915050600190039060005260206000200160009091909190916101000a81548173ffffffffffffffffffffffffffffffffffffffff021916908373ffffffffffffffffffffffffffffffffffffffff1602179055505b5050565b60008060005b6009805490508110156116e35760098181548110611664577f4e487b7100000000000000000000000000000000000000000000000000000000600052603260045260246000fd5b9060005260206000200160009054906101000a900473ffffffffffffffffffffffffffffffffffffffff1673ffffffffffffffffffffffffffffffffffffffff168473ffffffffffffffffffffffffffffffffffffffff1614156116cf5760018192509250506116ec565b6001816116dc9190612704565b905061161d565b50600080915091505b915091565b6116f96117e9565b73ffffffffffffffffffffffffffffffffffffffff16611717610e6a565b73ffffffffffffffffffffffffffffffffffffffff161461176d576040517f08c379a0000000000000000000000000000000000000000000000000000000008152600401611764906125f2565b60405180910390fd5b600073ffffffffffffffffffffffffffffffffffffffff168173ffffffffffffffffffffffffffffffffffffffff1614156117dd576040517f08c379a00000000000000000000000000000000000000000000000000000000081526004016117d490612552565b60405180910390fd5b6117e68161202c565b50565b600033905090565b600073ffffffffffffffffffffffffffffffffffffffff168373ffffffffffffffffffffffffffffffffffffffff161415611861576040517f08c379a000000000000000000000000000000000000000000000000000000000815260040161185890612652565b60405180910390fd5b600073ffffffffffffffffffffffffffffffffffffffff168273ffffffffffffffffffffffffffffffffffffffff1614156118d1576040517f08c379a00000000000000000000000000000000000000000000000000000000081526004016118c890612572565b60405180910390fd5b80600160008573ffffffffffffffffffffffffffffffffffffffff1673ffffffffffffffffffffffffffffffffffffffff16815260200190815260200160002060008473ffffffffffffffffffffffffffffffffffffffff1673ffffffffffffffffffffffffffffffffffffffff168152602001908152602001600020819055508173ffffffffffffffffffffffffffffffffffffffff168373ffffffffffffffffffffffffffffffffffffffff167f8c5be1e5ebec7d5bd14f71427d1e84f3dd0314c0f7b2291e5b200ac8c7c3b925836040516119af91906126b2565b60405180910390a3505050565b600081836119ca9190612704565b905092915050565b600073ffffffffffffffffffffffffffffffffffffffff168273ffffffffffffffffffffffffffffffffffffffff161415611a42576040517f08c379a0000000000000000000000000000000000000000000000000000000008152600401611a3990612612565b60405180910390fd5b611a4e82600083612108565b60008060008473ffffffffffffffffffffffffffffffffffffffff1673ffffffffffffffffffffffffffffffffffffffff16815260200190815260200160002054905081811015611ad4576040517f08c379a0000000000000000000000000000000000000000000000000000000008152600401611acb90612532565b60405180910390fd5b8181036000808573ffffffffffffffffffffffffffffffffffffffff1673ffffffffffffffffffffffffffffffffffffffff168152602001908152602001600020819055508160026000828254611b2b91906127e5565b92505081905550600073ffffffffffffffffffffffffffffffffffffffff168373ffffffffffffffffffffffffffffffffffffffff167fddf252ad1be2c89b69c2b068fc378daa952ba7f163c4a11628f55a4df523b3ef84604051611b9091906126b2565b60405180910390a3611ba48360008461210d565b505050565b6000611bb58484611515565b90507fffffffffffffffffffffffffffffffffffffffffffffffffffffffffffffffff8114611c2f5781811015611c21576040517f08c379a0000000000000000000000000000000000000000000000000000000008152600401611c18906125b2565b60405180910390fd5b611c2e84848484036117f1565b5b50505050565b600073ffffffffffffffffffffffffffffffffffffffff168373ffffffffffffffffffffffffffffffffffffffff161415611ca5576040517f08c379a0000000000000000000000000000000000000000000000000000000008152600401611c9c90612632565b60405180910390fd5b600073ffffffffffffffffffffffffffffffffffffffff168273ffffffffffffffffffffffffffffffffffffffff161415611d15576040517f08c379a0000000000000000000000000000000000000000000000000000000008152600401611d0c90612512565b60405180910390fd5b611d20838383612108565b60008060008573ffffffffffffffffffffffffffffffffffffffff1673ffffffffffffffffffffffffffffffffffffffff16815260200190815260200160002054905081811015611da6576040517f08c379a0000000000000000000000000000000000000000000000000000000008152600401611d9d906125d2565b60405180910390fd5b8181036000808673ffffffffffffffffffffffffffffffffffffffff1673ffffffffffffffffffffffffffffffffffffffff16815260200190815260200160002081905550816000808573ffffffffffffffffffffffffffffffffffffffff1673ffffffffffffffffffffffffffffffffffffffff1681526020019081526020016000206000828254611e399190612704565b925050819055508273ffffffffffffffffffffffffffffffffffffffff168473ffffffffffffffffffffffffffffffffffffffff167fddf252ad1be2c89b69c2b068fc378daa952ba7f163c4a11628f55a4df523b3ef84604051611e9d91906126b2565b60405180910390a3611eb084848461210d565b50505050565b60008183611ec4919061278b565b905092915050565b600073ffffffffffffffffffffffffffffffffffffffff168273ffffffffffffffffffffffffffffffffffffffff161415611f3c576040517f08c379a0000000000000000000000000000000000000000000000000000000008152600401611f3390612692565b60405180910390fd5b611f4860008383612108565b8060026000828254611f5a9190612704565b92505081905550806000808473ffffffffffffffffffffffffffffffffffffffff1673ffffffffffffffffffffffffffffffffffffffff1681526020019081526020016000206000828254611faf9190612704565b925050819055508173ffffffffffffffffffffffffffffffffffffffff16600073ffffffffffffffffffffffffffffffffffffffff167fddf252ad1be2c89b69c2b068fc378daa952ba7f163c4a11628f55a4df523b3ef8360405161201491906126b2565b60405180910390a36120286000838361210d565b5050565b6000600560009054906101000a900473ffffffffffffffffffffffffffffffffffffffff16905081600560006101000a81548173ffffffffffffffffffffffffffffffffffffffff021916908373ffffffffffffffffffffffffffffffffffffffff1602179055508173ffffffffffffffffffffffffffffffffffffffff168173ffffffffffffffffffffffffffffffffffffffff167f8be0079c531659141344cd1fd0a4f28419497f9722a3daafe3b4186f6b6457e060405160405180910390a35050565b6000818361210091906127e5565b905092915050565b505050565b505050565b60008135905061212181612cdc565b92915050565b60008135905061213681612cf3565b92915050565b60006020828403121561214e57600080fd5b600061215c84828501612112565b91505092915050565b6000806040838503121561217857600080fd5b600061218685828601612112565b925050602061219785828601612112565b9150509250929050565b6000806000606084860312156121b657600080fd5b60006121c486828701612112565b93505060206121d586828701612112565b92505060406121e686828701612127565b9150509250925092565b6000806040838503121561220357600080fd5b600061221185828601612112565b925050602061222285828601612127565b9150509250929050565b60006020828403121561223e57600080fd5b600061224c84828501612127565b91505092915050565b61225e81612819565b82525050565b61226d8161282b565b82525050565b600061227e826126e8565b61228881856126f3565b935061229881856020860161286e565b6122a181612960565b840191505092915050565b60006122b96023836126f3565b91506122c482612971565b604082019050919050565b60006122dc6022836126f3565b91506122e7826129c0565b604082019050919050565b60006122ff6026836126f3565b915061230a82612a0f565b604082019050919050565b60006123226022836126f3565b915061232d82612a5e565b604082019050919050565b6000612345601c836126f3565b915061235082612aad565b602082019050919050565b6000612368601d836126f3565b915061237382612ad6565b602082019050919050565b600061238b6026836126f3565b915061239682612aff565b604082019050919050565b60006123ae6020836126f3565b91506123b982612b4e565b602082019050919050565b60006123d16021836126f3565b91506123dc82612b77565b604082019050919050565b60006123f46025836126f3565b91506123ff82612bc6565b604082019050919050565b60006124176024836126f3565b915061242282612c15565b604082019050919050565b600061243a6025836126f3565b915061244582612c64565b604082019050919050565b600061245d601f836126f3565b915061246882612cb3565b602082019050919050565b61247c81612857565b82525050565b61248b81612861565b82525050565b60006020820190506124a66000830184612255565b92915050565b60006020820190506124c16000830184612264565b92915050565b60006040820190506124dc6000830185612264565b6124e96020830184612473565b9392505050565b6000602082019050818103600083015261250a8184612273565b905092915050565b6000602082019050818103600083015261252b816122ac565b9050919050565b6000602082019050818103600083015261254b816122cf565b9050919050565b6000602082019050818103600083015261256b816122f2565b9050919050565b6000602082019050818103600083015261258b81612315565b9050919050565b600060208201905081810360008301526125ab81612338565b9050919050565b600060208201905081810360008301526125cb8161235b565b9050919050565b600060208201905081810360008301526125eb8161237e565b9050919050565b6000602082019050818103600083015261260b816123a1565b9050919050565b6000602082019050818103600083015261262b816123c4565b9050919050565b6000602082019050818103600083015261264b816123e7565b9050919050565b6000602082019050818103600083015261266b8161240a565b9050919050565b6000602082019050818103600083015261268b8161242d565b9050919050565b600060208201905081810360008301526126ab81612450565b9050919050565b60006020820190506126c76000830184612473565b92915050565b60006020820190506126e26000830184612482565b92915050565b600081519050919050565b600082825260208201905092915050565b600061270f82612857565b915061271a83612857565b9250827fffffffffffffffffffffffffffffffffffffffffffffffffffffffffffffffff0382111561274f5761274e6128d3565b5b828201905092915050565b600061276582612857565b915061277083612857565b9250826127805761277f612902565b5b828204905092915050565b600061279682612857565b91506127a183612857565b9250817fffffffffffffffffffffffffffffffffffffffffffffffffffffffffffffffff04831182151516156127da576127d96128d3565b5b828202905092915050565b60006127f082612857565b91506127fb83612857565b92508282101561280e5761280d6128d3565b5b828203905092915050565b600061282482612837565b9050919050565b60008115159050919050565b600073ffffffffffffffffffffffffffffffffffffffff82169050919050565b6000819050919050565b600060ff82169050919050565b60005b8381101561288c578082015181840152602081019050612871565b8381111561289b576000848401525b50505050565b600060028204905060018216806128b957607f821691505b602082108114156128cd576128cc612931565b5b50919050565b7f4e487b7100000000000000000000000000000000000000000000000000000000600052601160045260246000fd5b7f4e487b7100000000000000000000000000000000000000000000000000000000600052601260045260246000fd5b7f4e487b7100000000000000000000000000000000000000000000000000000000600052602260045260246000fd5b6000601f19601f8301169050919050565b7f45524332303a207472616e7366657220746f20746865207a65726f206164647260008201527f6573730000000000000000000000000000000000000000000000000000000000602082015250565b7f45524332303a206275726e20616d6f756e7420657863656564732062616c616e60008201527f6365000000000000000000000000000000000000000000000000000000000000602082015250565b7f4f776e61626c653a206e6577206f776e657220697320746865207a65726f206160008201527f6464726573730000000000000000000000000000000000000000000000000000602082015250565b7f45524332303a20617070726f766520746f20746865207a65726f20616464726560008201527f7373000000000000000000000000000000000000000000000000000000000000602082015250565b7f796f75206e65656420746f207374616b6520666f722061207765656b00000000600082015250565b7f45524332303a20696e73756666696369656e7420616c6c6f77616e6365000000600082015250565b7f45524332303a207472616e7366657220616d6f756e742065786365656473206260008201527f616c616e63650000000000000000000000000000000000000000000000000000602082015250565b7f4f776e61626c653a2063616c6c6572206973206e6f7420746865206f776e6572600082015250565b7f45524332303a206275726e2066726f6d20746865207a65726f2061646472657360008201527f7300000000000000000000000000000000000000000000000000000000000000602082015250565b7f45524332303a207472616e736665722066726f6d20746865207a65726f20616460008201527f6472657373000000000000000000000000000000000000000000000000000000602082015250565b7f45524332303a20617070726f76652066726f6d20746865207a65726f2061646460008201527f7265737300000000000000000000000000000000000000000000000000000000602082015250565b7f45524332303a2064656372656173656420616c6c6f77616e63652062656c6f7760008201527f207a65726f000000000000000000000000000000000000000000000000000000602082015250565b7f45524332303a206d696e7420746f20746865207a65726f206164647265737300600082015250565b612ce581612819565b8114612cf057600080fd5b50565b612cfc81612857565b8114612d0757600080fd5b5056fea2646970667358221220a6cedbe212d0944339de7941f96b5a015aae56883768673325fd1a23fb66b05264736f6c63430008020033",
    "linkReferences": {},
    "deployedLinkReferences": {}
}